S00B00002020202020202020F4
S12180008E00FF8600B7100186FFB710038600B71002CC302CB7102BF7102D8600B75A
S121801E102C86FEB710098604B7103C860006BD80C67F00117F00107F000F7F000E5A
S121803C863F970C960C813F27FAD60E2609817326EE970E7E803CD60F261381542723
S121805A0A815327DD7F000E7E803C970F7E803CD61026138141270A815326C07F0030
S12180780F7E803C97107E803CD61126168152270D815326A67F00107F000F7E803C9B
S121809697117E803C815427108153268D7F00117F00107F000F7E803C86459719866B
S12180B458971A8649971B8654971C864F971D7E802D7F000D7F100286F49718CE10BB
S12180D2241C00400ECE10261C00507F10278610971B8660971C18CE10608616971559
S12180F0865397167F00197F001A399619D61A188F1808188FBD8241BD8176BD816699
S121810E961BD61C188F18084F18E600BD8251BD8195BD816618084F18E600BD825194
S121812CBD8195BD816618084F18E600BD8251BD8195BD816618084F18E600BD825149
S121814ABD8195BD816618084F18E600BD8251BD8195188F971BD71CBD81C339CE1068
S12181682EB6102E862CB7102F1F0080FC39CE102EB6102E960E8B30B7102F1F008063
S1218186FCB6102E960F8B30B7102F1F0080FCCE102EB6102E96108B30B7102F1F0080
S12181A480FCB6102E96118B30B7102F1F0080FCB6102E96128B30B7102F1F0080FC6E
S12181C239CE102EB6102E860AB7102F1F0080FCB6102E860DB7102F1F0080FC39CE22
S12181E0102EB6102E960CB7102F1F0080FCB6102E863AB7102F1F0080FC39CE10308C
S12181FE8680B710398610B710301F0080FCF61031D7138680B710398611B710301F5D
S121821C0080FCF61032D7148612B710301F0080FCF61033D71D8613B710301F00801B
S121823AFCF61034D71E39CE2710028FD70E8FCE03E8028FD70F8FCE0064028FD7104B
S10F82588FCE000A028FD7118FD7123985
S10EF10036B6102EB6102F970C323BD1
S121F110363CCE10251C00407A0018270332383B86FF970D86F497187C100232383B26
S105FFD6F10034
S105FFF0F1100A
S105FFFE80007D
S90380007C
