S00B00002020202020202020F4
S121000001010101860FB710038600B71002CC02C5B70000F7102D8600B7102C86FEB1
S121001EB710098604B7103C860006BD009E863F970C960D27FC7F000DB6000097175E
S121003C7F0000BD01B61809188FB70000D71A188F9619D61ABD0219BD014DBD013D1B
S121005ABD01D24FD613BD0229BD016CBD013D7F0000F60000BD0229BD016CBD013D2D
S12100784F01BD0229BD016CBD013D4FD61EBD0229BD016CBD013D4FD617BD0229BDD8
S1210096016CBD019A7E00307F000D7F100286F49718CE10241C00400ECE10261C0003
S12100B4507F00008610971B8660971C18CE10608616B70000865397167F00197F0034
S12100D21A399619D61A188F1808188FBD0219BD014DBD013D961BD61C188F18084F15
S12100F018E600BD0229BD016CBD013D18084F18E600BD0229BD016CBD013D18084FFA
S121010E18E600BD0229BD016CBD013D18084F18E600BD0229BD016CBD013D18084FDB
S121012C18E600BD0229BD016C188F971BD71C0139CE102EB6102E862CB7102F1F0054
S121014A80FC39CE102EB6102E960E8B30B7102F1F0080FCB6102E960F8B30B7102FA4
S12101681F0080FCCE102EB6102E96108B30B7102F1F0080FCB6102E96118B30B710CB
S12101862F1F0080FCB6102E96128B30B7102F1F0080FC39CE102EB6102E860AB71015
S12101A42F1F0080FCB6102E860DB7102F1F0080FC39CE102EB6102E960CB7102F1F67
S12101C20080FCB6102E863AB7102F1F0080FC39CE10308680B710398610B710301F61
S12101E00080FCF61031D7138680B710398611B710301F0080FCF61032F7000086126A
S12101FEB710301F0080FCF61033D71D8613B710301F0080FCF61034D71E39CE271088
S121021C028FD70E8FCE03E8028FD70F8FCE0064028FD7108FCE000A028FD7118FD70C
S105023A123973
S10EF10036B6102EB6102F970C323BD1
S121F110363CCE10251C00407A0018270332383B86FF970D86F497187C100232383B26
S105FFD6F10034
S105FFF0F1100A
S105FFFE80007D
S90380007C
