S00B00002020202020202020F4
S12180008E00FF8600B7100186FFB710038600B71002CC302CB7102BF7102D8600B75A
S121801E102C86FEB710098604B7103C860006BD80A07F000E7F000F7F00107F001180
S121803C863F970C960C813F27FAD60E2609815326EE970E7E803CD60F261081542647
S121805A05970F7E803C815326CC7E8033D6102609814126F197107E803CD611260943
S1218078815226E497117E803C815426DBBD808B7E8030864597198678971A866997AB
S12180961B8674971C866F971D397F000D7F100286F49718CE10241C00400ECE102668
S12180B41C00507F10278610971B8660971C18CE106086169715865397167F00197F6C
S12180D2001A399619D61A188F1808188FBD821BBD8150BD8140961BD61C188F18085C
S12180F04F18E600BD822BBD816FBD814018084F18E600BD822BBD816FBD814018086A
S121810E4F18E600BD822BBD816FBD814018084F18E600BD822BBD816FBD814018084B
S121812C4F18E600BD822BBD816F188F971BD71CBD819D39CE102EB6102E862CB710F4
S121814A2F1F0080FC39CE102EB6102E960E8B30B7102F1F0080FCB6102E960F8B30CC
S1218168B7102F1F0080FCCE102EB6102E96108B30B7102F1F0080FCB6102E96118B4C
S121818630B7102F1F0080FCB6102E96128B30B7102F1F0080FC39CE102EB6102E866F
S12181A40AB7102F1F0080FCB6102E860DB7102F1F0080FC39CE102EB6102E960CB774
S12181C2102F1F0080FCB6102E863AB7102F1F0080FC39CE10308680B710398610B7E2
S12181E010301F0080FCF61031D7138680B710398611B710301F0080FCF61032D7142F
S12181FE8612B710301F0080FCF61033D71D8613B710301F0080FCF61034D71E39CEA7
S121821C2710028FD70E8FCE03E8028FD70F8FCE0064028FD7108FCE000A028FD711BB
S107823A8FD712398B
S10EF10036B6102EB6102F970C323BD1
S121F110363CCE10251C00407A0018270332383B86FF970D86F497187C100232383B26
S105FFD6F10034
S105FFF0F1100A
S105FFFE80007D
S90380007C
