S00B00002020202020202020F4
S12180008E00FF8600B7100186FFB710038600B71002CC302CB7102BF7102D8600B75A
S121801E102C86FEB710098604B7103C860006BD80CF7F000E7F000F7F00107F001151
S121803C863F970C960C813F27FAD60E260B815326EE8653970E7E803CD60F261181E5
S121805A5426078654970F7E803C7F000E7E804AD610261181412607864197107E807C
S12180783C7F000F7E8064D611261181522607865297117E803C7F00107E8079815407
S121809626037E80A17F00117E808E7F000E7F001FCE0020961F27FC7F001F960C8132
S12180B44527097F000EA700087E80AA7C000ED60EC10427037E80BA7E00207F000D12
S12180D27F100286F49718CE10241C00400ECE10261C00507F10278610971B8660977B
S12180F01C18CE106086169715865397167F00197F001A399619D61A188F1808188FB7
S121810EBD824ABD817FBD816F961BD61C188F18084F18E600BD825ABD819EBD816F83
S121812C18084F18E600BD825ABD819EBD816F18084F18E600BD825ABD819EBD816F13
S121814A18084F18E600BD825ABD819EBD816F18084F18E600BD825ABD819E188F9764
S12181681BD71CBD81CC39CE102EB6102E862CB7102F1F0080FC39CE102EB6102E9692
S12181860E8B30B7102F1F0080FCB6102E960F8B30B7102F1F0080FCCE102EB6102E98
S12181A496108B30B7102F1F0080FCB6102E96118B30B7102F1F0080FCB6102E961244
S12181C28B30B7102F1F0080FC39CE102EB6102E860AB7102F1F0080FCB6102E860D6E
S12181E0B7102F1F0080FC39CE102EB6102E960CB7102F1F0080FCB6102E863AB71005
S12181FE2F1F0080FC39CE10308680B710398610B710301F0080FCF61031D7138680F9
S121821CB710398611B710301F0080FCF61032D7148612B710301F0080FCF61033D7BA
S121823A1D8613B710301F0080FCF61034D71E39CE2710028FD70E8FCE03E8028FD747
S11882580F8FCE0064028FD7108FCE000A028FD7118FD7123934
S111F10036B6102EB6102F970C7A001F323B35
S121F110363CCE10251C00407A0018270332383B86FF970D86F497187C100232383B26
S105FFD6F10034
S105FFF0F1100A
S105FFFE80007D
S90380007C
