S105FFFEFF00FE
S105FFDEFFAD71
S113FF000F8E00FF7F0006BD00628610B7102186A9
S113FF1080B710240ECE10238604A7007F00061F8E
S113FF200004F9FC1010FD00028604A7001F000461
S113FF30FCF600068604A700FE1010FF0004C102B0
S113FF4027625D2705BC0002245AFC0004B30002AA
S113FF50CE0032028F8300091A8301DB250CC30013
S113FF60011A8303BC2503C30001FD0000BD006228
S113FF70CE0010BD005318CE0008FC0000CDEE00EA
S113FF80271102FD00008F178B30BD004F18081891
S113FF900820E7B600018B30BD004FCE0026BD001F
S113FFA0537EFFA1CE002ABD00537EFFA18680B7F9
S110FFB01025F60006C10224037C00063B68
S113000803E80064000A00000D5468652063617009
S11300186163697479206F66204378203D00206EFF
S113002846000D546869732063617061636974796B
S113003820697320746F0D62696720746F206D6581
S113004861737572652E00B7104039363CA60027D7
S113005806B710400820F63832397F104039860533
S1130068B710404FF610413CCE001402378F323897
S113007839373686143D32361BB710418606B71019
S10700884032333992
S9030000FC
